:0C00BB000A08039F250D9949411F010907
:0B00C800EF1FAC0670011E4C70F6220A
:10008F00E4F580E4F512F51374082513F8E6F590FE
:10009F007F607EEA1200C80513E51370020512C3D4
:0C00AF00940AE5126480948040DE80D743
:03000000020003F8
:0C000300787FE4F6D8FD75811302004AF6
:10000F0002008FE493A3F8E493A34003F68001F278
:10001F0008DFF48029E493A3F85407240CC8C333F2
:10002F00C4540F4420C8834004F456800146F6DFC1
:10003F00E4800B01020408102040809000BBE47E96
:10004F00019360BCA3FF543F30E509541FFEE493B6
:10005F00A360010ECF54C025E060A840B8E493A37D
:10006F00FAE493A3F8E493A3C8C582C8CAC583CAA8
:10007F00F0A3C8C582C8CAC583CADFE9DEE780BE60
:0100C7000038
:00000001FF
